{
  "contractName": "Cop",
  "abi": [
    {
      "constant": true,
      "inputs": [
        {
          "internalType": "uint256",
          "name": "",
          "type": "uint256"
        }
      ],
      "name": "sneakers",
      "outputs": [
        {
          "internalType": "address",
          "name": "",
          "type": "address"
        }
      ],
      "payable": false,
      "stateMutability": "view",
      "type": "function"
    },
    {
      "constant": false,
      "inputs": [
        {
          "internalType": "uint256",
          "name": "snkrsId",
          "type": "uint256"
        }
      ],
      "name": "cop",
      "outputs": [
        {
          "internalType": "uint256",
          "name": "",
          "type": "uint256"
        }
      ],
      "payable": false,
      "stateMutability": "nonpayable",
      "type": "function"
    },
    {
      "constant": true,
      "inputs": [],
      "name": "getSneakers",
      "outputs": [
        {
          "internalType": "address[16]",
          "name": "",
          "type": "address[16]"
        }
      ],
      "payable": false,
      "stateMutability": "view",
      "type": "function"
    }
  ],
  "bytecode": "0x608060405234801561001057600080fd5b506101e7806100206000396000f3fe608060405234801561001057600080fd5b50600436106100415760003560e01c8063898c0d46146100465780638fa6782a14610075578063bd2e065c146100b6575b600080fd5b6100636004803603602081101561005c57600080fd5b50356100ef565b60408051918252519081900360200190f35b61007d610130565b604051808261020080838360005b838110156100a357818101518382015260200161008b565b5050505090500191505060405180910390f35b6100d3600480360360208110156100cc57600080fd5b5035610176565b604080516001600160a01b039092168252519081900360200190f35b6000600f8211156100ff57600080fd5b336000836010811061010d57fe5b0180546001600160a01b0319166001600160a01b03929092169190911790555090565b610138610193565b604080516102008101918290529060009060109082845b81546001600160a01b0316815260019091019060200180831161014f575050505050905090565b6000816010811061018357fe5b01546001600160a01b0316905081565b604051806102000160405280601090602082028038833950919291505056fea265627a7a72315820d530b8438cf6e03dbe5e29966a5888e0133b793f026eec680c48385970d843d264736f6c63430005100032",
  "source": "pragma solidity >=0.5.0;\n\ncontract Cop{\n\naddress[16] public sneakers;\n// cop a sneakers\nfunction cop(uint snkrsId) public returns (uint) {\n  require(snkrsId >= 0 && snkrsId <= 15);\n\n  sneakers[snkrsId] = msg.sender;\n\n  return snkrsId;\n}\n\n// Recupera tutte le sneakers\nfunction getSneakers() public view returns (address[16] memory) {\n  return sneakers;\n}\n\n\n}",
  "sourcePath": "/Users/leonardo/Desktop/SneakerShop/contracts/Cop.sol",
  "compiler": {
    "name": "solc",
    "version": "0.5.16+commit.9c3226ce.Emscripten.clang"
  },
  "schemaVersion": "3.4.11",
  "updatedAt": "2023-12-29T15:00:12.638Z",
  "networkType": "ethereum",
  "devdoc": {
    "methods": {}
  },
  "userdoc": {
    "methods": {}
  }
}